{
  "contractName": "Demo",
  "abi": [
    {
      "inputs": [
        {
          "internalType": "uint256",
          "name": "_number",
          "type": "uint256"
        }
      ],
      "name": "setNumber",
      "outputs": [],
      "stateMutability": "nonpayable",
      "type": "function"
    },
    {
      "inputs": [],
      "name": "getNumber",
      "outputs": [
        {
          "internalType": "uint256",
          "name": "",
          "type": "uint256"
        }
      ],
      "stateMutability": "view",
      "type": "function",
      "constant": true
    },
    {
      "inputs": [],
      "name": "getNameValue",
      "outputs": [
        {
          "internalType": "string",
          "name": "",
          "type": "string"
        }
      ],
      "stateMutability": "view",
      "type": "function",
      "constant": true
    },
    {
      "inputs": [
        {
          "internalType": "string",
          "name": "value",
          "type": "string"
        }
      ],
      "name": "setNameValue",
      "outputs": [],
      "stateMutability": "nonpayable",
      "type": "function"
    }
  ],
  "bytecode": "0x6080604052600a60005534801561001557600080fd5b5061076b806100256000396000f3fe608060405234801561001057600080fd5b506004361061004c5760003560e01c80633637df8e146100515780633fb5c1cb1461006d57806361291b2e14610089578063f2c9ecd8146100a7575b600080fd5b61006b600480360381019061006691906102d7565b6100c5565b005b61008760048036038101906100829190610356565b6100d8565b005b6100916100e2565b60405161009e919061040b565b60405180910390f35b6100af610174565b6040516100bc919061043c565b60405180910390f35b80600190816100d49190610663565b5050565b8060008190555050565b6060600180546100f190610486565b80601f016020809104026020016040519081016040528092919081815260200182805461011d90610486565b801561016a5780601f1061013f5761010080835404028352916020019161016a565b820191906000526020600020905b81548152906001019060200180831161014d57829003601f168201915b5050505050905090565b60008054905090565b6000604051905090565b600080fd5b600080fd5b600080fd5b600080fd5b6000601f19601f8301169050919050565b7f4e487b7100000000000000000000000000000000000000000000000000000000600052604160045260246000fd5b6101e48261019b565b810181811067ffffffffffffffff82111715610203576102026101ac565b5b80604052505050565b600061021661017d565b905061022282826101db565b919050565b600067ffffffffffffffff821115610242576102416101ac565b5b61024b8261019b565b9050602081019050919050565b82818337600083830152505050565b600061027a61027584610227565b61020c565b90508281526020810184848401111561029657610295610196565b5b6102a1848285610258565b509392505050565b600082601f8301126102be576102bd610191565b5b81356102ce848260208601610267565b91505092915050565b6000602082840312156102ed576102ec610187565b5b600082013567ffffffffffffffff81111561030b5761030a61018c565b5b610317848285016102a9565b91505092915050565b6000819050919050565b61033381610320565b811461033e57600080fd5b50565b6000813590506103508161032a565b92915050565b60006020828403121561036c5761036b610187565b5b600061037a84828501610341565b91505092915050565b600081519050919050565b600082825260208201905092915050565b60005b838110156103bd5780820151818401526020810190506103a2565b838111156103cc576000848401525b50505050565b60006103dd82610383565b6103e7818561038e565b93506103f781856020860161039f565b6104008161019b565b840191505092915050565b6000602082019050818103600083015261042581846103d2565b905092915050565b61043681610320565b82525050565b6000602082019050610451600083018461042d565b92915050565b7f4e487b7100000000000000000000000000000000000000000000000000000000600052602260045260246000fd5b6000600282049050600182168061049e57607f821691505b6020821081036104b1576104b0610457565b5b50919050565b60008190508160005260206000209050919050565b60006020601f8301049050919050565b600082821b905092915050565b6000600883026105197fffffffffffffffffffffffffffffffffffffffffffffffffffffffffffffffff826104dc565b61052386836104dc565b95508019841693508086168417925050509392505050565b6000819050919050565b600061056061055b61055684610320565b61053b565b610320565b9050919050565b6000819050919050565b61057a83610545565b61058e61058682610567565b8484546104e9565b825550505050565b600090565b6105a3610596565b6105ae818484610571565b505050565b5b818110156105d2576105c760008261059b565b6001810190506105b4565b5050565b601f821115610617576105e8816104b7565b6105f1846104cc565b81016020851015610600578190505b61061461060c856104cc565b8301826105b3565b50505b505050565b600082821c905092915050565b600061063a6000198460080261061c565b1980831691505092915050565b60006106538383610629565b9150826002028217905092915050565b61066c82610383565b67ffffffffffffffff811115610685576106846101ac565b5b61068f8254610486565b61069a8282856105d6565b600060209050601f8311600181146106cd57600084156106bb578287015190505b6106c58582610647565b86555061072d565b601f1984166106db866104b7565b60005b82811015610703578489015182556001820191506020850194506020810190506106de565b86831015610720578489015161071c601f891682610629565b8355505b6001600288020188555050505b50505050505056fea264697066735822122082880a7f02b7cf20f7458059881c1f3effdcea2878aaf1c3cea5c9fd72672e6b64736f6c634300080f0033",
  "immutableReferences": {},
  "source": "// SPDX-License-Identifier: MIT\r\npragma solidity >=0.4.22 <0.9.0;\r\n\r\ncontract Demo {\r\n    uint number = 10;\r\n    string _value;\r\n\r\n    function setNumber(uint _number) public {\r\n        number = _number;\r\n    }\r\n\r\n    function getNumber() public view returns (uint) {\r\n        return number;\r\n    }\r\n\r\n    function getNameValue() public view returns (string memory) {\r\n        return _value;\r\n    }\r\n\r\n    function setNameValue(string memory value) public {\r\n        _value = value;\r\n    }\r\n}\r\n",
  "sourcePath": "C:\\Users\\Ali\\Documents\\Visual_Studio_Code\\Blockchain\\Ethers.js\\practice_session\\contracts\\demo.sol",
  "compiler": {
    "name": "solc",
    "version": "0.8.15+commit.e14f2714.Emscripten.clang"
  },
  "schemaVersion": "3.4.8",
  "updatedAt": "2022-07-28T15:09:33.010Z",
  "networkType": "ethereum",
  "devdoc": {
    "kind": "dev",
    "methods": {},
    "version": 1
  },
  "userdoc": {
    "kind": "user",
    "methods": {},
    "version": 1
  }
}